S01700005265616C2054696D6520436C6F636B2E73726563CE
S11300000C942A000C9447000C9447000C9447006D
S11300100C9447000C94A5050C9447000C944700DD
S11300200C9447000C9447000C9447000C94470030
S11300300C9447000C9447000C9447000C94470020
S11300400C9447000C9447000C9447000C94470010
S11300500C94470011241FBECFE5D8E0DEBFCDBF0E
S113006010E0A0E6B0E0EAE2FDE002C005900D92E7
S1130070A03DB107D9F710E0A0EDB0E001C01D929A
S1130080A13DB107E1F70E9409040C9493060C9476
S11300900000843409F471C0853448F4823499F141
S11300A0833408F04DC0813409F083C00FC0823618
S11300B051F1833620F4813609F07BC007C08336C2
S11300C009F43EC0843609F074C057C0413069F465
S11300D02AB381E090E0AC0102C0440F551F6A9539
S11300E0E2F7BA01622B6ABB08952AB381E090E07B
S11300F0AC0102C0440F551F6A95E2F7BA0160953E
S113010062236ABB0895413069F427B381E090E02B
S1130110AC0102C0440F551F6A95E2F7BA01622B85
S113012067BB089527B381E090E0AC0102C0440F9F
S1130130551F6A95E2F7BA016095622367BB08957B
S1130140413069F424B381E090E0AC0102C0440F73
S1130150551F6A95E2F7BA01622B64BB089524B374
S113016081E090E0AC0102C0440F551F6A95E2F7AC
S1130170BA016095622364BB0895413069F421B3E8
S113018081E090E0AC0102C0440F551F6A95E2F78C
S1130190BA01622B61BB089521B381E090E0AC0108
S11301A002C0440F551F6A95E2F7BA0160956223B5
S11301B061BB0895843409F471C0853448F48234F1
S11301C099F1833408F04DC0813409F083C00FC025
S11301D0823651F1833620F4813609F07BC007C0A2
S11301E0833609F43EC0843609F074C057C04130E8
S11301F069F42BB381E090E0AC0102C0440F551FB9
S11302006A95E2F7BA01622B6BBB08952BB381E0C8
S113021090E0AC0102C0440F551F6A95E2F7BA01A1
S1130220609562236BBB0895413069F428B381E083
S113023090E0AC0102C0440F551F6A95E2F7BA0181
S1130240622B68BB089528B381E090E0AC0102C042
S1130250440F551F6A95E2F7BA016095622368BBA3
S11302600895413069F425B381E090E0AC0102C007
S1130270440F551F6A95E2F7BA01622B65BB0895D6
S113028025B381E090E0AC0102C0440F551F6A958C
S1130290E2F7BA016095622365BB0895413069F4C1
S11302A022B381E090E0AC0102C0440F551F6A956F
S11302B0E2F7BA01622B62BB089522B381E090E0B9
S11302C0AC0102C0440F551F6A95E2F7BA0160956C
S11302D0622362BB0895843409F43DC0853440F43C
S11302E08234F9F0833450F5813409F040C00CC0F5
S11302F08236B9F0833618F48136C9F505C08336E1
S1130300E9F08436A1F527C02BB381E090E0AC017D
S113031002C0440F551F6A95E2F7BA0162276BBB0E
S1130320089528B381E090E0AC0102C0440F551F4A
S11303306A95E2F7BA01622768BB089525B381E0A4
S113034090E0AC0102C0440F551F6A95E2F7BA0170
S1130350622765BB089522B381E090E0AC0102C03E
S1130360440F551F6A95E2F7BA01622762BB0895EC
S11303708434B1F1853438F48234E1F0833428F5DF
S11303808134C1F50CC08236A9F0833618F4813665
S113039089F505C08336C9F0843661F521C029B3D7
S11303A030E0C90102C0959587956A95E2F7982FC8
S11303B0917020C026B330E0C90102C0959587959D
S11303C06A95E2F7982F917015C023B330E0C90104
S11303D002C0959587956A95E2F7982F91700AC0A7
S11303E020B330E0C90102C0959587956A95E2F77C
S11303F0982F9170892F08958434D9F0853438F476
S1130400823499F0833498F48134A1F40CC0823698
S113041061F0833618F4813669F405C0833639F007
S1130420843641F406C06ABB089567BB089564BB73
S1130430089561BB08958434D9F0853438F4823446
S113044099F0833498F48134A1F40CC0823661F0BD
S1130450833618F4813669F405C0833639F084365E
S113046041F406C06BBB089568BB089565BB08954D
S113047062BB0895843409F1853438F48234A9F0D8
S11304808334B8F48134E1F40CC0823671F08336DD
S113049018F48136A9F405C0833659F0843681F402
S11304A00CC08BB380958BBB089588B3809588BBB3
S11304B0089585B3809585BB089582B3809582BBEA
S11304C008958434D9F0853438F4823499F083342F
S11304D098F48134A1F40CC0823661F0833618F4A8
S11304E0813669F405C0833639F0843641F406C098
S11304F099B305C096B303C093B301C090B3892FD9
S113050008950E94DA000895CF93DF93C82FD62F61
S1130510462F417060E00E94DA004D2F46954170ED
S11305208C2F61E00E94DA004D2F4695469541706C
S11305308C2F62E00E94DA00D695D695D6954D2F81
S113054041708C2F63E00E94DA00DF91CF9108950F
S1130550CF93DF93C82FD62F462F417064E00E94BB
S1130560DA004D2F469541708C2F65E00E94DA0029
S11305704D2F4695469541708C2F66E00E94DA0017
S1130580D695D695D6954D2F41708C2F67E00E9455
S1130590DA00DF91CF910895CF93C82F6FE00E94C6
S11305A0FC018C2F64E041E00E9481028C2F65E005
S11305B041E00E9481028C2F66E041E00E948102AA
S11305C08C2F67E041E00E948102CF910895EF9261
S11305D0FF920F931F93CF93DF93CDB7DEB760974E
S11305E00FB6F894DEBF0FBECDBF082FDE01119603
S11305F0E0E6F0E080E101900D928150E1F7EE2415
S1130600FF24802F6FE00E948402802F6E2D40E033
S11306100E94DA0010E0612F6C5F802F0E94B80105
S1130620882389F4F701EE0FFF1FEE0FFF1FE10F80
S1130630F11D81E090E08C0F9D1FE80FF91F808170
S11306408F3F21F00BC01F5F143029F70894E11C81
S1130650F11C94E0E916F104A1F68FEF60960FB651
S1130660F894DEBF0FBECDBFDF91CF911F910F91E4
S1130670FF90EF90089581E460E041E00E94DA0089
S11306808FE99FE00197F1F700C0000081E460E08A
S113069040E00E94DA008FE99FE00197F1F700C083
S11306A000000895CF93C82F81E461E040E00E94E8
S11306B0DA006C2F62956F7081E40E94A8020E9498
S11306C03B0381E46C2F0E94A8020E943B038FEC41
S11306D097E00197F1F700C00000CF910895CF9300
S11306E0C82F81E461E041E00E94DA006C2F62953A
S11306F06F7081E40E94A8020E943B0381E46C2F86
S11307000E94A8020E943B038FEC97E00197F1F747
S113071000C00000CF91089581E00E9452038FE44D
S113072096E40197F1F700C00000089582E00E946A
S113073052038FE496E40197F1F700C00000089596
S11307408FE799EAA3E081509040A040E1F700C010
S1130750000081E464E041E00E94490081E465E036
S113076041E00E94490081E466E041E00E944900C2
S113077081E467E041E00E94490081E460E041E0F7
S11307800E94490081E461E041E00E94490081E463
S113079062E041E00E94490081E462E040E00E949E
S11307A0DA000E94960388E20E9452038EE00E94BF
S11307B052030E948C0386E00E9452030895CF9353
S11307C0DF93EC018881882331F021960E946F0326
S11307D089918823D9F7DF91CF910895282F21504B
S11307E0223070F4613170F4662371F0813019F4B1
S11307F0962F91580AC0823041F4962F915405C027
S113080090E803C090E801C090E8892F0E94520349
S113081008950E94A00384E40E94CC0282E40E9412
S1130820B6050E942706A09AA19AA29AA39AA49A0E
S1130830A59A80E790E00E94DF0382E061E00E94D5
S1130840EE038BE790E00E94DF03FF2400E00F2E0D
S1130850F8EB8F2EF0E09F2EF02D0F2EF4EACF2E22
S1130860F0E0DF2EF02D0F2EFCEAAF2EF0E0BF2ECD
S1130870F02D0F2EF5E86F2EF0E07F2EF02D0F2EC9
S1130880FEE84F2EF0E05F2EF02D0F2EF9E92F2E0B
S1130890F0E03F2EF02DDAE001C0FF2484E40E9452
S11308A0E7028F3F09F4CDC0813309F0B0C08FE770
S11308B09AE1A6E081509040A040E1F700C000001A
S11308C00E948C03C3010E94DF0381E067E00E9461
S11308D0EE0384E40E94E702182F8F3FD1F30E94B5
S11308E06F038FE79AE1A6E081509040A040E1F7C2
S11308F000C0000084E40E94E702C82F8F3FD1F3B8
S11309000E946F038FE79AE1A6E081509040A040D7
S1130910E1F700C00000110FF12EFF0CFF0C1F0DBA
S11309201051F12EFC0E0E948C03C2010E94DF03C1
S113093081E069E00E94EE0384E40E94E702182F3C
S11309408F3FD1F30E946F038FE79AE1A6E08150B5
S11309509040A040E1F700C0000084E40E94E70258
S1130960C82F8F3FD1F30E946F038FE79AE1A6E06F
S113097081509040A040E1F700C00000110F012F0A
S1130980000F000F100F012F00510C0F0E948C0359
S1130990C1010E94DF0381E069E00E94EE0384E468
S11309A00E94E702182F8F3FD1F30E946F038FE755
S11309B09AE1A6E081509040A040E1F700C0000019
S11309C084E40E94E702C82F8F3FD1F30E946F0393
S11309D08FE79AE1A6E081509040A040E1F700C083
S11309E00000110F812F880F880F180F1051C10FAD
S11309F0C093D0000E948C03C6010E94DF0382E0F2
S1130A0061E00E94EE03C5010E94DF031AC00E9448
S1130A108C03C4010E94DF038FEF99E6A8E18150A3
S1130A209040A040E1F700C000000E948C03C60182
S1130A300E94DF0382E061E00E94EE03C5010E9490
S1130A40DF03A99AAA9AAB9AAC9AAD9AA898809116
S1130A50D0006D2F0E94870682E4692F0E94BA0598
S1130A60AFE0B7E21197F1F700C00000A89AAA9A84
S1130A70AB9AAC9AAD9AA9988091D0006D2F0E9440
S1130A808706682F82E40E94BA058FE097E20197F7
S1130A90F1F700C00000A89AA99AAB9AAC9AAD9A53
S1130AA0AA98802F6D2F0E948706C82F82E4692F91
S1130AB00E94BA05AFE0B7E21197F1F700C0000059
S1130AC0A89AA99AAA9AAC9AAD9AAB9882E46C2F88
S1130AD00E94BA058FE097E20197F1F700C0000089
S1130AE0A89AA99AAA9AAB9AAD9AAC988F2D6D2F11
S1130AF00E948706C82F82E4692F0E94BA05AFE0DE
S1130B00B7E21197F1F700C00000A89AA99AAA9A2F
S1130B10AB9AAC9AAD9882E46C2F0E94BA058FE030
S1130B2097E20197F1F700C000008091D0008C3368
S1130B3019F41092D0000F5F0C3311F4F39400E019
S1130B4098E1F91609F0AACEA8CE1F920F920FB61B
S1130B500F9211248F938091D0008F5F8093D000E7
S1130B608F910F900FBE0F901F9018956FEF0E94FA
S1130B70FC010895CF93DF93CDB7DEB72A970FB664
S1130B80F894DEBF0FBECDBFDE011196E5ECF0E0B8
S1130B909AE001900D929150E1F7FE01E60FF11DEC
S1130BA061810E941B022A960FB6F894DEBF0FBE25
S1130BB0CDBFDF91CF910895CF93C82F6C3449F006
S1130BC06D3418F4683471F519C06836B9F06C36B0
S1130BD049F58C2F60E041E00E9449008C2F61E0D0
S1130BE041E00E9449008C2F62E041E00E944900EC
S1130BF08C2F63E041E00E94490014C08C2F64E014
S1130C0041E00E9449008C2F65E041E00E944900C8
S1130C108C2F66E041E00E9449008C2F67E041E0A0
S1130C200E944900CF9108956C3449F06D3418F452
S1130C30683461F408C0683631F06C3639F4642FD6
S1130C400E9484020895642F0E94A802089582B528
S1130C50886082BD85B5816085BD85B5846085BDAC
S1130C60789489B7806489BF089585B5886085BD07
S1130C7080E483BD85B5816085BD85B5826085BD11
S1130C8085B5846085BD789489B7806889BF0895E7
S1130C908F9A85B5886085BD80E483BD85B5816004
S1130CA085BD85B5826085BD85B5846085BD85B506
S1130CB0806185BD08958F9A85B5806485BD85B5AD
S1130CC0886085BD80E483BD85B5816085BD85B5BB
S1130CD0826085BD85B5846085BD85B5806285BD2E
S1130CE008958F9A85B5806485BD80E483BD85B5FC
S1130CF0816085BD85B5826085BD85B5846085BD0F
S1130D0085B5806185BD85B5806285BD0895991BD3
S1130D1079E004C0991F961708F0961B881F7A95EE
S10D0D20C9F780950895F894FFCFF9
S1130D2A3738392F3435362A3132332D43303D2B77
S1130D3A5072657373203120746F00736574206375
S1130D4A6C6F636B00486F7572733D2D2D004D698E
S1130D5A6E757465733D2D2D005365636F6E6473F0
S1130D6A3D2D2D005072657373203100746F20730A
S1130D7A65742074696D650057726F6E67204368E5
S1130D8A6F696365003F065B4F666D7D477F6F0041
S9030000FC
